:10000000C3C10000F2C10000F0C10000EEC1000059
:10001000ECC10000EAC10000E8C10000E6C1000038
:10002000E4C10000E2C10000E0C10000DEC1000048
:10003000DCC10000DAC10000D8C10000D6C1000058
:10004000D4C10000D2C10000D0C10000CEC1000068
:10005000CCC10000CAC10000C8C100000C948F0EC2
:10006000C4C100000C94220E0C94F90DBEC1000016
:10007000BCC10000BAC10000B8C10000B6C1000098
:10008000B4C10000B2C10000B0C10000AEC10000A8
:10009000ACC10000AAC10000A8C10000A6C10000B8
:1000A000A4C10000A2C10000A0C100009EC10000C8
:1000B0009CC100009AC1000098C1000096C10000D8
:1000C00094C1000092C1000090C100008EC10000E8
:1000D0008CC100008AC100000C94D00D0C94A70DB7
:1000E00084C1000041542B574C454156450D0041F9
:1000F000542B4D4543484F3D300D0041540D004FAA
:100100004B000D0A496E697469616C6C697A696E9D
:10011000672057692D4669206D6F64756C652E2EBA
:100120002E000D0A2A2A2A2A2A2A2A2A0D0A53656B
:100130007269616C2072656164792E004F4B000D0D
:100140000A50617273696E67204150206461746166
:100150002066726F6D2073747265616D2E2E2E0095
:100160004F4B000D0A5374617274207363616E6E9D
:10017000696E672E2E2E0041542B575343414E0D6E
:10018000004F4B000D0A536F7274696E67206279DD
:1001900020525353492E2E2E0000000507206100E7
:1001A0000000000000005F00000007000700147F4F
:1001B000147F14242A7F2A122313086462364955B7
:1001C00022500005030000001C2241000041221CB7
:1001D00000082A1C2A0808083E08080050300000C1
:1001E0000808080808006060000020100804023EAB
:1001F0005149453E00427F400042615149462141FC
:10020000454B311814127F1027454545393C4A4962
:1002100049300171090503364949493606494929DA
:100220001E00363600000056360000000814224139
:100230001414141414412214080002015109063246
:100240004979413E7E1111117E7F494949363E412F
:100250004141227F4141221C7F494949417F09098F
:1002600001013E414151327F0808087F00417F4132
:10027000002040413F017F081422417F4040404020
:100280007F0204027F7F0408107F3E4141413E7F90
:10029000090909063E4151215E7F0919294646494F
:1002A00049493101017F01013F4040403F1F20404B
:1002B000201F7F2018207F63140814630304780430
:1002C00003615149454300007F4141020408102069
:1002D00041417F00000402010204404040404000D0
:1002E0000102040020545454787F48444438384470
:1002F000444420384444487F3854545418087E09F4
:100300000102081454543C7F0804047800447D40E2
:10031000002040443D00007F10284400417F400001
:100320007C041804787C0804047838444444387CFD
:1003300014141408081414187C7C08040408485485
:10034000545420043F4440203C4040207C1C20402A
:10035000201C3C4030403C44281028440C50505055
:100360003C4464544C44000836410000007F0000C7
:10037000004136080008082A1C08081C2A08080042
:1003800006090906BB14B31411241FBECFEFD1E236
:10039000DEBFCDBF00E00CBF12E0A0E0B2E0EEE5B2
:1003A000F6E300E00BBF02C007900D92AE37B10735
:1003B000D9F724E0AEE7B2E001C01D92AB37B20737
:1003C000E1F711E0C3ECD1E000E006C0219701099C
:1003D000802FFE010E949F15C23CD10780E00807D4
:1003E000A9F70E9454100C941E1B0ACE8F929F9264
:1003F000AF92BF92CF92DF92EF92FF920F931F9333
:10040000CF93DF937C01EB016C0182E0C80ED11C1D
:100410004701E5E08E0E911C00E010E0F6014191ED
:100420006F0150E060E070E02AE0CE010E940B1006
:100430005C01E881F9810190F081E02D6EE2CE014E
:1004400019958A0D9B1D080F191FC814D90431F77F
:10045000F701458150E060E070E02AE0CE010E94A3
:100460000B10800F911FDF91CF911F910F91FF9083
:10047000EF90DF90CF90BF90AF909F908F900895B6
:1004800080E992E0F1D421E0892B09F420E0822F69
:100490000895FC0184910895623021F4889A899A24
:1004A00075980895613019F4889A899802C08898DF
:1004B000899A759A0895F0DF809101018F7D80936C
:1004C0000101809101018F7B80930101249825987F
:1004D0009D986B9880910101877F809301018091A5
:1004E00001018F7E809301018A9A8B988C9AC8951E
:1004F00000C08091000184FDFCCF8C980895CF93BB
:10050000C62F642FD8DF8A988B98809101018F7D48
:1005100080930101809101018F7B809301012498D8
:1005200025988091010180628093010180910101F1
:10053000806480930101249A259A9D986B988091FC
:100540000101877F80930101809101018F7E80935B
:1005500001019D9A6B9A809101018860809301014D
:1005600080910101806180930101809102018F7D62
:1005700080930201809102018F7B809302012C986D
:100580002D98C0FF05C08091020180628093020116
:10059000C1FF05C080910201806480930201C2FD09
:1005A0002C9AC3FD2D9AA598739880910201877F9C
:1005B00080930201809102018F7E80930201C4FD2D
:1005C000A59AC5FD739AC6FF05C080910201886097
:1005D00080930201C7FF05C0809102018061809372
:1005E000020100C08C9AC895C89500008C98CF91E4
:1005F000089560917E0262956695669563705BDFF3
:100600008A9A8B9A00C08C9AC89500C0809100018C
:1006100085FB882780F99091000196FD82601C99E6
:1006200084601D998860959980616399806290913A
:10063000000193FD80649091000194FD80688C9886
:1006400008950F931F93CF93DF938C0180917E02C7
:10065000681304C080917F02481749F1603C38F567
:10066000403428F5942FC62F60937E0240937F027A
:10067000D62FD295D695D695D37096959695969574
:10068000ED2FF0E0E258FD4F8281981731F0928310
:10069000692F686B4D2FC80132DF6C2F6F73606458
:1006A0004D2FC801DF91CF911F910F9128CFDF917E
:1006B000CF911F910F910895FF920F931F93CF93A6
:1006C000DF931F92CDB7DEB760917E02603CA0F44D
:1006D0008C0169838EDFC8018CDFF82E8091CA03FC
:1006E00069818111F0948FEF80937E0240917F02A7
:1006F000C801A7DF8F2D01C080E00F90DF91CF915F
:100700001F910F91FF900895BF92CF92DF92EF92C9
:10071000FF920F931F93CF93DF938C01C62F80918D
:100720007E02803C08F0CAC1F82EF294F694F6944A
:1007300083E0F82280917F028770E82E09F425C1BA
:10074000C801BADFB82E6F2DC801B5DE8A988B9A22
:10075000809101018F7D80930101809101018F7B48
:1007600080930101249825989091010190629093C3
:10077000010190910101906490930101249A259ABE
:100780009D986B9890910101977F909301019091B2
:1007900001019F7E909301019D9A6B9A90910101B6
:1007A00098609093010190910101906190930101F3
:1007B00000C08C9AD0E0CE2CD12C9E0101C0220F1B
:1007C000EA94EAF72B298091CA0381112095809140
:1007D00002018F7D80930201809102018F7B8093C3
:1007E00002012C982D9820FF05C0809102018062A3
:1007F0008093020121FF05C08091020180648093F3
:10080000020122FD2C9A23FD2D9AA59873988091C0
:100810000201877F80930201809102018F7E809385
:10082000020124FDA59A25FD739A26FF05C080913B
:10083000020188608093020127FF05C080910201B8
:10084000806180930201C895C89500008C98E09063
:100850007F028E2D90E00896887F803491050CF001
:100860008FC048E04E0D487F60917E02C801E9DEEE
:10087000C80122DFB82E6F2DC8011DDE8A988B9A21
:10088000809101018F7D80930101809101018F7B17
:1008900080930101249825988091010180628093C2
:1008A000010180910101806480930101249A259ABD
:1008B0009D986B9890910101977F90930101909181
:1008C00001019F7E909301019D9A6B9A9091010185
:1008D00098609093010190910101906190930101C2
:1008E00000C08C9A28E030E02C193D0902C0D59553
:1008F000C7952A95E2F7CB298091CA038111C0954B
:10090000809102018F7D80930201809102018F7B93
:10091000809302012C982D98C0FF05C080910201A0
:10092000806280930201C1FF05C080910201806452
:1009300080930201C2FD2C9AC3FD2D9AA59873984D
:1009400080910201877F80930201809102018F7E56
:1009500080930201C4FDA59AC5FD739AC6FF05C028
:1009600080910201886080930201C7FF05C08091D9
:100970000201806180930201C895C89500008C989F
:1009800060917E026F5F4E2D8EC06F2DC80193DD8A
:100990008A988B9A809101018F7D809301018091CB
:1009A00001018F7B8093010124982598809101019A
:1009B0008062809301018091010180648093010134
:1009C000249A259A9D986B9880910101877F809346
:1009D0000101809101018F7E809301019D9A6B9AA4
:1009E0008091010188608093010180910101806103
:1009F000809301018091CA038111C09500C08C9A37
:100A0000809102018F7D80930201809102018F7B92
:100A1000809302012C982D98C0FF05C0809102019F
:100A2000806280930201C1FF05C080910201806451
:100A300080930201C2FD2C9AC3FD2D9AA59873984C
:100A400080910201877F80930201809102018F7E55
:100A500080930201C4FDA59AC5FD739AC6FF05C027
:100A600080910201886080930201C7FF05C08091D8
:100A70000201806180930201C895C89500008C989E
:100A800060917E026F5F60937E02862F82958695CD
:100A9000869583708F1591F0603C80F48FEF809382
:100AA0007E0240917F02C801DF91CF911F910F918B
:100AB000FF90EF90DF90CF90BF90C3CDDF91CF91AB
:100AC0001F910F91FF90EF90DF90CF90BF9008950E
:100AD0007F928F929F92AF92BF92CF92DF92EF92CE
:100AE000FF920F931F93CF93DF936C01F62E041B9D
:100AF0000F5F261B99249394920E842F8770142FD6
:100B0000181BA02EB12C28E030E0A901481B510988
:100B1000A416B5065CF42A193B09CFEFD0E002C059
:100B2000D595C7952A95E2F7802E04C098E0892EC6
:100B3000881ACFEF01C0CC0F8A95EAF77C2E412F9F
:100B40006F2DC6017EDDD0E0C095D91568F4C601D1
:100B5000B3DD9FEF682FE91202C0672901C06C2343
:100B6000C601D2DDDF5FF1CFC12F811A282D2C0FF6
:100B7000822F90E0AC01495F5F4F4A155B056CF432
:100B8000C85F4C2F6F2DC6015CDDD0E0D91570F722
:100B90006E2DC601B9DDDF5FF9CF201708F5A81A61
:100BA000B90A8FEF90E001C0880FAA94EAF7D82F16
:100BB000D09548E04C0F6F2DC60143DDC0E01D2FDE
:100BC0001095C91568F4C60177DD9FEF682FE9120B
:100BD00002C06D2B01C06123C60196DDCF5FF1CF4E
:100BE000DF91CF911F910F91FF90EF90DF90CF9009
:100BF000BF90AF909F908F907F9008954F925F929B
:100C00006F927F928F929F92AF92BF92CF92DF921C
:100C1000EF92FF920F931F93CF93DF93CDB7DEB781
:100C2000D4500FB6F894DEBF0FBECDBF9E01285E34
:100C30003B4FCC5EDB4F48815981C451D44060E0CA
:100C400074E0CE0101960E942A188091850290914D
:100C50008602DC01ED91FC910480F581E02D19956F
:100C60001816190664F48091850290918602DC01C1
:100C7000ED91FC910680F781E02D1995E6CF109259
:100C8000DD031092DC031092DF031092DE0340912B
:100C9000DA035091DB0360E070E08091E003909113
:100CA000E1030E94C517BE016F5F7F4F80918502EF
:100CB000909186020E9453100E94830E2B013C01EA
:100CC00000E010E0CA5EDB4FC880D980C651D44036
:100CD0000D2C000CEE08FF080E94830EDC01CB01F6
:100CE00084199509A609B7098C159D05AE05BF05A0
:100CF00018F00FEF1FEF3AC08091850290918602A5
:100D0000DC01ED91FC910480F581E02D1995892B92
:100D100081F18091850290918602DC01ED91FC9138
:100D20000680F781E02D1995E091E003F091E10351
:100D30002091DC033091DD03E20FF31F808380916B
:100D4000DC039091DD0301966091DA037091DB037F
:100D50000E948B159093DD038093DC03112309F42B
:100D6000BBCF002309F4B8CF00E010E0CCD7C80116
:100D700029C08090E0039090E103A090DE03B09042
:100D8000DF0311110BC06CE672E0C4018A0D9B1DDC
:100D90000E94EB1711E0892B09F410E0011107C044
:100DA00001E0C4018A0D9B1D892B09F400E063E773
:100DB00072E0C4018A0D9B1D0E94EB17892B71F212
:100DC0008FEF9FEFDC5F0FB6F894DEBF0FBECDBF95
:100DD000DF91CF911F910F91FF90EF90DF90CF9017
:100DE000BF90AF909F908F907F906F905F904F904B
:100DF0000895FC01A089B1898C91A689B78982FDEB
:100E00000FC09C91818D8F5F8F73228D821749F067
:100E1000218DDF01A20FB11D5D969C93818F0895F6
:100E20008C910895FC01918D828D981761F0828DCF
:100E3000DF01A80FB11D5D968C91928D9F5F9F730E
:100E4000928F90E008958FEF9FEF0895FC01918DB0
:100E5000828D981731F0828DE80FF11D858D90E01D
:100E600008958FEF9FEF0895FC01918D228D892FBA
:100E700090E0805C9F4F821B91098F7399270895A2
:100E80008DE293E0F1DF21E0892B09F420E0822F4D
:100E90000895FC01848DDF01A80FB11DA35ABF4F37
:100EA0002C91848D90E001968F739927848FA68969
:100EB000B7892C93A089B1898C9180648C93938D90
:100EC000848D981306C00288F389E02D80818F7D80
:100ED00080830895EF92FF920F931F93CF93DF9338
:100EE000EC0181E0888F9B8D8C8D981305C0E8897B
:100EF000F989808185FD23C0F62E0B8D10E00F5FF0
:100F00001F4F0F731127E02E8C8DE8120BC00FB608
:100F100007FCFACFE889F989808185FFF5CFCE01FA
:100F2000B8DFF2CF8B8DFE01E80FF11DE35AFF4FC2
:100F3000F0820B8FEA89FB898081806207C0EE898D
:100F4000FF896083E889F98980818064808381E0FA
:100F500090E0DF91CF911F910F91FF90EF90089556
:100F6000CF93DF93EC01888D8823C1F0EA89FB8958
:100F7000808185FD05C0A889B9898C9186FD0EC048
:100F80000FB607FCF5CF808185FFF2CFA889B9891C
:100F90008C9185FFEDCFCE017CDFE8CFDF91CF9143
:100FA000089580E090E0892B19F06ADF811120C05C
:100FB00080E090E0892B41F080E090E0892B21F0E7
:100FC0000E940000811117C080E090E0892B41F061
:100FD00080E090E0892B21F00E94000081110EC07A
:100FE00080E090E0892B79F04BDA81110AC00895F6
:100FF0000E940000DDCF0E940000E6CF0E940000AA
:10100000EFCF0C94000008953FB7F89480918C02C4
:1010100090918D02A0918E02B0918F0226B5A89B6F
:1010200005C02F3F19F00196A11DB11D3FBFBA2F7A
:10103000A92F982F8827820F911DA11DB11DBC01DA
:10104000CD0142E0660F771F881F991F4A95D1F79F
:1010500008950E94B8172F923F924F925F926F921D
:101060007F928F929F92AF92BF92CF92DF92EF9238
:10107000FF920F931F93CF93DF93CDB7DEB76697A1
:101080000FB6F894DEBF0FBECDBFDC0115962D91D3
:101090003C9116972115310519F480E090E038C590
:1010A000162F9E8B8D8BC9010396E0918302F091E0
:1010B00084026A3009F02BC21995F82EE091830260
:1010C000F0918402AD89BE8915968D919C911697F9
:1010D000199581110DC0ED89FE8985819681E09178
:1010E0008302F091840201961995813009F45FC260
:1010F000AD89BE891C966C911C9719962C911997F5
:10110000621780F41D964C911D9781E014969C9176
:101110009F3F09F480E0E82EE1940F2D040F8D89A4
:101120009E89D6DCED89FE89838595852F2D30E05B
:1011300080FDF6C00285602F70E0220F331F290F5B
:10114000311D261737070CF4E3C08685811106C0D0
:1011500081E0AD89BE891E968C93D8C421E0290F09
:10116000201B9F2C990C920E91E0ED89FE898481C1
:101170008F3F09F490E0E92EE194AD89BE8919967C
:101180007C90199718964C9118971796DC90892D9A
:1011900090E0840F911D68177907BCF0242F277009
:1011A00081E090E001C0880F2A95EAF788248A94AC
:1011B000880EB42FB87F6B2EC92CC40EEC2DE87F9F
:1011C0005E2EAA24A394B12C51C0272D6D2D8D899C
:1011D0009E897EDC90C0222D30E0832D877002C076
:1011E000359527958A95E2F7312F377020FF07C094
:1011F000C501032E01C0880F0A94EAF7482A3394E8
:10120000832D877009F44AC0373059F4412F487F45
:101210006D2D8D899E8915DA642D8D899E8974DAEC
:10122000412C132D19190315B0F6312E390C212F2D
:101230002770131144C0C9F05FEF510F452F487F4D
:101240006D2D8D899E892C8BFCD98D899E8934DAF0
:101250002C89B50101C0660F2A95EAF761958623AE
:10126000682F64298D899E894FDAD3947D1408F400
:1012700042C0462D6D2D8D899E89E3D98D899E8929
:101280001BDA482E48203C2C452D6D2D8D899E89DA
:10129000D8D98D899E8910DA282EC3CFFFE3F315A4
:1012A00008F4B2CF432D487F6D2D8D899E893B8BED
:1012B000C8D98D899E8900DA282E3B89A5CF3FEFBA
:1012C000C501022E01C0880F0A94EAF7E31202C09A
:1012D000482A02C080954822273059F4412F487F80
:1012E0006D2D8D899E89ADD9642D8D899E890CDAED
:1012F000412C1F5F9CCFAD89BE8917968C911797A3
:101300001C968C931C971A968C911A978F19FCC077
:10131000ED89FE89878184879F5F9F0D9587F6C33E
:10132000AD89BE891896DC9018974D2D50E0692F35
:1013300070E0240F351F261737075CF417968C9141
:1013400017971C968C931C9791509F191D969C93F0
:10135000DDC3ED89FE898685882309F4F9CE9F5F78
:101360009D19192F1F0D91E084818F3F09F490E0A2
:10137000E92EE194AD89BE891A960C911A971996B7
:101380009C9019971796FC90410F511D802F90E06B
:1013900084179507D4F0202F27702F5F81E090E00D
:1013A00001C0880F2A95EAF7C82EC194202F287F04
:1013B0002983702E711A372D387F532EAA24A394B7
:1013C000B12C81E0882E811A5FC0292D4D2D6F2D03
:1013D0008D899E897DDB8DC02A94822D8770873010
:1013E00051F4422D487F6F2D8D899E892AD98D8990
:1013F0009E8962D9682E2D1420F1262D30E0822D91
:10140000877002C0359527958A95E2F7832D8770FE
:1014100020FF07C09501082E01C0220F0A94EAF7A9
:10142000422A81110BC0432D487F6F2D8D899E89E3
:1014300008D9642D8D899E8967D9412C3A94211051
:10144000CBCF212E632C611A462D420D211034C0C2
:10145000982D930D892F8770382EA9F0492F487F3A
:101460006F2D8D899E89EDD88D899E8925D9B501ED
:1014700001C0660F3A94EAF761508623682F642909
:101480008D899E8941D9F3949F1498F149816F2DDC
:101490008D899E89D6D88D899E890ED9482E4C205B
:1014A000272C452D6F2D8D899E89CBD88D899E89BE
:1014B00003D9682E302E9FCF842F87705FEFB50140
:1014C000082E01C0660F0A94EAF7E51202C0462A08
:1014D00002C06095462281110AC0487F6F2D8D8918
:1014E0009E89AFD8642D8D899E890ED9412C2A946E
:1014F000ABCFAD89BE8917968C9117971C968C93AC
:101500001C9718968C9118971D968C93FFC219956D
:10151000E82EED89FE8985819681E0918302F09124
:10152000840204961995082FAD89BE8915968D9170
:101530009C911697E0918302F0918402059619958B
:10154000101708F4AACD212F30E0A82EB12CA50148
:10155000400F511DC901841795070CF09ECD2E2D0B
:1015600030E03D832C83690137E0C30ED11C73E06A
:10157000D594C7947A95E1F7101BE0918302F0911E
:101580008402AD89BE8915968D919C911697199507
:1015900081110FC0ED89FE8985819681E0918302DA
:1015A000F091840201961995823018F46FC2FA9472
:1015B0009FCD86E0882E912C612C712CAD89BE893F
:1015C00015968D919C911697E0918302F09184027B
:1015D0002AEF280D211748F4880D991D1995680EDA
:1015E000711CFFEF8F1A9F0AE9CF6C9C90016D9CD4
:1015F000300D7C9C300D1124B6E0AB0EB11CA50162
:10160000420F531F5A834983612F70E06A5F7F4FF7
:10161000860F971F1995F82E33243394FF2009F471
:101620003CCDAD89BE891E968C911E97882331F0E2
:101630006AE0CD0110DDED89FE891686AD89BE898F
:101640001B968C911B97CF2CD12C81FF18C01C9618
:101650001C911C9715968D919C911697E091830291
:10166000F09184020296199590E08C199D0997FDDE
:10167000019695958795810FED89FE898487AD89BF
:10168000BE891C968C911C978601080F111DE09154
:101690008302F091840215968D919C91169719956D
:1016A00081110DC0ED89FE8985819681E0918302CB
:1016B000F09184020196199591E0813009F090E053
:1016C000091B1109AD89BE8919968C91199790E073
:1016D000801791074CF56AE0CD01BDDCED89FE89EC
:1016E0008685882339F06AE0CF01B5DCAD89BE89F3
:1016F0001E961C92ED89FE89838581FF15C0148595
:1017000085819681E0918302F09184020296199579
:1017100090E08C199D0997FD019695958795810F0D
:10172000AD89BE891C968C93E0918302F09184026E
:10173000AD89BE8915968D919C9116971995811149
:10174000C3C1ED89FE8985819681E0918302F09184
:10175000840201961995813009F0B6C14E2C10E033
:1017600028E030E08E2D8770A901481B5109598768
:10177000488729813A812C0D3D1D398B288B642C9B
:10178000712C88248394912C141508F044C1AD89E0
:10179000BE891D965C901D97510E5B82452D487F3A
:1017A0001C966C911C97CD010E942103812F869578
:1017B000869586958F9D900111243F832E83A12CC1
:1017C000B12C812F90E09C01287F4C815D81421BD0
:1017D000530B5B874A87288939894E815F81240FA3
:1017E000351F3D872C879301281B390B3F872E8798
:1017F0000B810770AF1408F0B8C01E1538F52E81A4
:101800003F8149815A81240F351F2A0D3B1DAD8927
:10181000BE8915968D919C911697E0918302F09167
:101820008402820F931F1995282E332081F02A8578
:101830003B85283031055CF4682F70E0088402C0D5
:10184000759567950A94E2F7262E01C0212CAD8983
:10185000BE8914968C91811101C02094502E8B81E9
:10186000812B877091F42E853F85283031056CF0EF
:10187000AD89BE891B968C911B9782FF04C0CD0158
:101880000E945C03282A622D68C08D899E890E946F
:101890005C03082F412F2C853D852A0D311D642FB7
:1018A0006770822D90E0062E02C0959587950A9468
:1018B000E2F780FF08C0C401052C01C0880F0A941C
:1018C000EAF7082B08C0C401052C01C0880F0A9450
:1018D000EAF780950823673051F5ED89FE89858107
:1018E0009681E0918302F0918402820F931F2C8BEA
:1018F0003B8B4A8B1995282E2C893B894A893320AA
:1019000079F08C819D81841B910909974CF4622D9B
:1019100070E0088402C0759567950A94E2F7262E58
:10192000AD89BE8914968C91811101C020944F5FBE
:101930005394B8E05B120DC0602FED89FE8983855A
:1019400082FF0BC08D899E890E945C03682F602BEB
:1019500004C0441508F4A3CFEFCF8D899E890E945F
:101960008403FFEFAF1ABF0A43CFE0918302F091E7
:101970008402AD89BE8915968D919C911697199513
:1019800081110CC0ED89FE8985819681E0918302E9
:10199000F0918402019619958130D1F1A12EB12CDC
:1019A000011106C0C3018A199B0908970CF094C065
:1019B0008D899E890E945C03002309F489C0B401CB
:1019C000002E01C0660F0A94EAF7615093012A19AC
:1019D0003B09283031054CF4A40102C0440F551FC7
:1019E0002A95E2F79A012195622BAD89BE8914965A
:1019F0009C9191116FC06095682BAD89BE891B9633
:101A00008C911B9782FD70C08D899E890E948403F2
:101A1000101B185FB9CEED89FE8984858F0D8487F0
:101A2000838581FF19C085819681E0918302F091C1
:101A3000840202961995AD89BE891C962C912F19A6
:101A4000280F90E08C199D0997FD01969595879533
:101A5000281BED89FE892487E0918302F09184029E
:101A6000AD89BE8915968D919C9116971995811116
:101A700045C0ED89FE8985819681E0918302F091D0
:101A80008402019619958130C9F540C0AD89BE899F
:101A900015968D919C911697E0918302F0918402A6
:101AA00002961995F82E1C9D90011D9D300D112454
:101AB000F29EC001F39E900D11249C012A5F3F4FBE
:101AC0003A832983312CAACD442443944E0C47CE2B
:101AD00060E07CCF682391CF61E0ED89FE8984814D
:101AE000811160E0619589CF6F3F09F48DCFCD0101
:101AF0006A8B0E945C036A89682B86CFAD89BE8998
:101B00001C968C911C978F5F1C968C9381E090E0C3
:101B100066960FB6F894DEBF0FBECDBFDF91CF91B2
:101B20001F910F91FF90EF90DF90CF90BF90AF90FB
:101B30009F908F907F906F905F904F903F902F90ED
:101B400008956D3009F087CA81E090E008951F92F2
:101B50000F920FB60F9211240BB60F922F933F9353
:101B60004F935F936F937F938F939F93AF93BF93A5
:101B7000EF93FF9380E992E08CD9FF91EF91BF91B1
:101B8000AF919F918F917F916F915F914F913F9115
:101B90002F910F900BBE0F900FBE0F901F901895B6
:101BA0001F920F920FB60F9211240BB60F922F9324
:101BB0003F934F935F936F937F938F939F93AF93D5
:101BC000BF93EF93FF9380E992E013D9FF91EF91D8
:101BD000BF91AF919F918F917F916F915F914F9145
:101BE0003F912F910F900BBE0F900FBE0F901F9043
:101BF00018951F920F920FB60F9211240BB60F92E9
:101C00002F933F934F935F936F937F938F939F9304
:101C1000AF93BF93EF93FF938DE293E03AD9FF9197
:101C2000EF91BF91AF919F918F917F916F915F9154
:101C30004F913F912F910F900BBE0F900FBE0F90C1
:101C40001F9018951F920F920FB60F9211240BB68A
:101C50000F922F933F934F935F936F937F938F9345
:101C60009F93AF93BF93EF93FF938DE293E0C1D81F
:101C7000FF91EF91BF91AF919F918F917F916F9164
:101C80005F914F913F912F910F900BBE0F900FBE20
:101C90000F901F9018958F929F92AF92BF92CF9204
:101CA000DF92EF92FF926B017C01AED94B015C0198
:101CB000C114D104E104F104E9F0A6D9DC01CB019F
:101CC00088199909AA09BB09883E9340A105B10565
:101CD00078F321E0C21AD108E108F10888EE880EF5
:101CE00083E0981EA11CB11CC114D104E104F104CD
:101CF00021F7DECFFF90EF90DF90CF90BF90AF90B5
:101D00009F908F9008952FB7F894609188027091FA
:101D1000890280918A0290918B022FBF08951F92B1
:101D20000F920FB60F9211242F933F938F939F938F
:101D3000AF93BF938091880290918902A0918A020B
:101D4000B0918B023091870223E0230F2D3720F4CE
:101D50000196A11DB11D05C026E8230F0296A11D05
:101D6000B11D209387028093880290938902A093EB
:101D70008A02B0938B0280918C0290918D02A09187
:101D80008E02B0918F020196A11DB11D80938C022D
:101D900090938D02A0938E02B0938F02BF91AF916A
:101DA0009F918F913F912F910F900FBE0F901F9099
:101DB0001895CF92DF92EF92FF920F931F93CF93DC
:101DC000DF936C017A018B01C0E0D0E0CE15DF0516
:101DD00089F0D8016D918D01D601ED91FC910190B2
:101DE000F081E02DC6011995892B11F47E0102C006
:101DF0002196ECCFC701DF91CF911F910F91FF90FA
:101E0000EF90DF90CF900895FC01A089B18982E026
:101E10008C93A485B5851C92A685B78580E18C93AB
:101E2000108EA489B58986E08C93A289B3898C91A0
:101E300080618C93A289B3898C9188608C93A289EC
:101E4000B3898C9180688C930288F389E02D80811E
:101E50008F7D80830895CF93C0E080914C04C81794
:101E600058F4EC2FF0E0EE0FFF1FE851FC4F80819B
:101E7000918102D7CF5FF1CF88E893E1E8EEF3E0FC
:101E8000DF019C011D9221503040E1F7CF91089570
:101E9000CF93DF93C0E04C2F60E08BEC93E00E9487
:101EA00021038091D2038093D7038091D3038C0FB9
:101EB0008093D8031092D903D0EC60E08BEC93E0D0
:101EC0000E948403D150C9F7C85FC03421F78091C4
:101ED000D2038093D7038091D3038093D8031092C9
:101EE000D903DF91CF9108950F931F930CDF609377
:101EF00098027093990280939A0290939B02E091CA
:101F00009002F09191020680F781E02D80E992E045
:101F1000199597FF1EC0F7DE009198021091990263
:101F200020919A0230919B02DC01CB01801B910B26
:101F3000A20BB30B0091940210919502209196028E
:101F40003091970280179107A207B307C0F28FEF75
:101F50009FEF1F910F9108950F931F93CF93DF93DE
:101F6000EC0188819981009729F02A813B8126170D
:101F7000370780F48B016F5F7F4F16D7009761F0B2
:101F8000998388831B830A832C813D81232B11F441
:101F9000FC01108281E001C080E0DF91CF911F91B0
:101FA0000F910895EF92FF920F931F93CF93DF93BA
:101FB0008C017B01C0E0D0E0F701EC0FFD1F6491C4
:101FC000662361F0D801ED91FC910190F081E02D44
:101FD000C8011995892B11F02196EECFCE01DF9122
:101FE000CF911F910F91FF90EF90089561157105AA
:101FF00079F0FB0101900020E9F73197AF01461B12
:10200000570BDC01ED91FC910280F381E02D1994D6
:1020100080E090E008954F925F926F927F92EF92EE
:10202000FF920F931F93CF93DF93CDB7DEB7A197A6
:102030000FB6F894DEBF0FBECDBF7C01FA01CB0115
:1020400019A2223008F42AE08E010F5D1F4F422EA4
:10205000512C612C712CBF01A30192010E94FC1A2A
:10206000F901CA01015011096A3014F4605D01C020
:10207000695CD8016C93232B242B252B61F7B801C5
:10208000C701B4DFA1960FB6F894DEBF0FBECDBF77
:10209000DF91CF911F910F91FF90EF907F906F9004
:1020A0005F904F900895A2CFCF93DF93CDB7DEB767
:1020B000C054D1090FB6F894DEBF0FBECDBF7894DF
:1020C00084B5826084BD84B5816084BD85B582603D
:1020D00085BD85B5816085BD80916E0081608093EE
:1020E0006E00109281008091810082608093810057
:1020F0008091810081608093810080918000816067
:10210000809380008091B10084608093B1008091C1
:10211000B00081608093B0008091910082608093D4
:102120009100809191008160809391008091900056
:102130008160809390008091A10082608093A100D3
:102140008091A10081608093A1008091A0008160B6
:102150008093A00080912101826080932101809171
:102160002101816080932101809120018160809311
:10217000200180917A00846080937A0080917A00B7
:10218000826080937A0080917A00816080937A00E7
:1021900080917A00806880937A001092C100839ABF
:1021A000829A849A8C98809A8898819A89986D9A54
:1021B00075988A988B988FEF80937E0280937F0228
:1021C0001092CA0362E370E080E090E064DD50E8C2
:1021D000E52E52E0F52E10E00FEF612F8BEC93E02F
:1021E0000E944C02809101018F7D809301018091BA
:1021F00001018F7B80930101249825989D986B980D
:1022000080910101877F80930101809101018F7E80
:1022100080930101809102018F7D80930201809162
:1022200002018F7B809302012C982D9880910201EE
:102230008062809302018091020180648093020198
:102240002C9A2D9AA598739880910201877F80938C
:102250000201809102018F7E80930201A59A739AF8
:102260008091020188608093020180910201806167
:10227000809302018A9A8B988C9AC89500C08091AD
:10228000000185FB882780F99091000196FD82600E
:102290001C9984601D99886095998061639980621A
:1022A0009091000193FD80649091000194FD8068FD
:1022B0008C9884FD24C087FD22C0D7010D937D0139
:1022C000412F6FE38BEC93E00E947F02412F60EC83
:1022D0008BEC93E00E947F021F5F133009F07DCFEB
:1022E000E12C0FE32FEB40E060E08BEC93E00E94E9
:1022F000680540E060E08BEC93E00E94210389E9EF
:1023000091E09093D1038093D00389E492E090937D
:102310008402809383028FEF8093CF036EE272E09A
:102320008BEC93E0C0DE8DE293E06EDD62E271E063
:102330008DE293E037DE62E071E08DE293E032DE21
:1023400080E992E061DD6BE372E08BEC93E04EDEBE
:1023500060E772E08BEC93E049DE6EE372E08BECB9
:1023600093E0A1DE80E992E090938602809385025B
:1023700005E010E023E0B22E38EEA32E4BEFC42E82
:1023800040E0D42E83E0E82EBF9298EEF92EAF9273
:10239000DF92CF920E94FE050F900F900F900F904A
:1023A000892B09F4CAC268EE73E080E090E073DC28
:1023B0000150110939F768E873E180E090E06BDCC7
:1023C0006BE372E08BEC93E011DE60E772E08BEC84
:1023D00093E00CDE6FEF70E08DE293E0E3DD58DD1B
:1023E0003ADDFE0131966F014E01FAE18F0E911C2C
:1023F0005E018CE2A80EB11C8DE293E00E941207F0
:1024000067E771E080E992E0CDDD63E671E08DE29F
:1024100093E0C8DD80E992E00E943407892BD1F374
:1024200060E671E08DE293E0BDDD6FE371E08DE287
:1024300093E0B8DD1A8219821C821B821E821D82E3
:1024400060E070E0C60188DD29813A8181110CC00D
:102450002115310511F0C9010FD41A8219821E828B
:102460001D821C821B821FC01E821D8262E772E0D9
:10247000C9019BD518C08F329105C1F08A8F1B8E80
:102480000D811E810F5F1F4FB801C60165DD8823D6
:1024900051F029813A818D819E81B401820F931F71
:1024A00084D51E830D8320DD97FFE5CF89819A8136
:1024B000E3D380E992E00E9412070A97D1F7CBDCC0
:1024C00019E1312E80E992E00E9434070597D4F398
:1024D00080E992E00E9412078B35910509F42AC128
:1024E00080E992E00E9412078F97D1F7D601E32D81
:1024F0001D92EA95E9F710E080E992E00E94340726
:102500000797D4F380E992E00E9412078F3231F0EE
:10251000F601E10FF11D80831F5FEECF82E1D40150
:102520001D928A95E9F710E080E992E00E94340755
:102530004197D4F380E992E00E9412078F3231F084
:10254000F401E10FF11D80831F5FEECF1AAE1BAEC9
:102550001CAE1DAE10E080E992E00E9434070397A4
:10256000D4F380E992E00E9412078F3249F0EAE347
:10257000F0E0EC0FFD1FE10FF11D80831F5FEBCF3B
:10258000CE01CA9642D5582E181619060CF0519451
:102590001EAA1FAA18AE19AE10E080E992E00E94B0
:1025A0003407892BD1F380E992E00E9412078F3221
:1025B00049F0E6E3F0E0EC0FFD1FE10FF11D808331
:1025C0001F5FEBCFCE01C69620D5E82E1816190650
:1025D0000CF0E1948AE0F50111928A95E9F710E098
:1025E00080E992E00E9434070A97D4F380E992E0F0
:1025F0000E9412078F3231F0F501E10FF11D808347
:102600001F5FEECF80E992E00E941207823329F02B
:10261000853331F4B2E04B2E04C04424439401C00E
:10262000412C80E992E00E9412078F97D1F7219602
:102630001DAE1EAE1FAE219710E080E992E00E9411
:1026400034070397D4F380E992E00E9412078D309B
:1026500049F0EEE3F0E0EC0FFD1FE10FF11D808388
:102660001F5FEBCFCE01CE96D0D4F82E18161906E8
:102670000CF0F19484E290E06AD28C01DC01E32D4D
:102680001D92EA95E9F73C01F9E16F0E711C86E0B5
:10269000D3011D928A95E9F7F80111A281E082A386
:1026A00013A248E150E0B601C80186D4F401D30179
:1026B00090819A3314F4905301C09753892F8295D7
:1026C000807F91819A3314F4905301C09753982BD3
:1026D0009D933396EA15FB0559F7D8015F965C92F6
:1026E0005F979096EC926CE472E0C50155D4892B0B
:1026F00049F061E572E0C5014FD4892B19F481E0FE
:10270000F80181A3D80192964C9292979396FC92ED
:1027100080914C04E82FF0E0EE0FFF1FE851FC4FD2
:10272000118300838F5F80934C0480E992E00E94C4
:102730001207C8CE6CE371E08DE293E033DC60E712
:1027400072E08DE293E052DC64E871E08DE293E0A8
:1027500029DC40914C0408EE13E0D80180E0841796
:1027600031F1682F982F5FEF292F30E0220F331FB0
:1027700028513C4FF90120813181F901278D25171E
:1027800010F4692F522F9F5F9413EECFE62FF0E0E5
:10279000EE0FFF1FE851FC4F208131816D917C913C
:1027A0001197718360832D933D938F5FD8CF61E83C
:1027B00071E08DE293E0F6DB6BDB8091D2038093D6
:1027C000D7038091D3038093D8031092D90369E58E
:1027D00072E08BEC93E067DC8091D2038D5880939C
:1027E000D7038091D3038093D8031092D9036EE569
:1027F00072E08BEC93E057DC8091D2038457809396
:10280000D7038091D3038093D8031092D90363E652
:1028100072E08BEC93E047DC8091D2038B55809380
:10282000D7038091D3038093D8031092D90367E62E
:1028300072E08BEC93E037DC88E0F82E8091D203D5
:102840008093D7038091D3038F0D8093D803109288
:10285000D9033801D8016D917C918BEC93E023DC96
:102860008091D20383588093D7038091D3038F0D37
:102870008093D8031092D903D801ED91FC9141A126
:1028800050E060E070E02AE08BEC93E0C4DB8091E4
:10289000D2038D568093D7038091D3038F0D8093FD
:1028A000D8031092D903D801ED91FD918D0143A178
:1028B00050E060E070E02AE08BEC93E0ACDB8091CC
:1028C000D2038B558093D7038091D3038F0D8093D0
:1028D000D8031092D903D301ED91FC91878D90E03C
:1028E0009195819591092C01092E000C66087708B5
:1028F000892BA1F0E091CB03F091CC030190F08102
:10290000E02D6DE28BEC93E0199544275527BA0131
:1029100044195509660977092AE004C02AE040E015
:1029200050E0BA018BEC93E076DBB8E0FB0EE0E41C
:10293000FE1284CF0E94D1075FCDEF92FF928FEEFF
:1029400090E09F938F930E94FE05EF92FF9284EE9A
:1029500090E09F938F930E94FE050FB6F894DEBF20
:102960000FBECDBF2DCD8091E0039091E103009784
:1029700009F082C10895EF92FF920F931F93CF93B6
:10298000DF93EDE4F4E0C6E2D2E0D183C0831282AB
:10299000138214821582E0E9F2E01382128248EE7B
:1029A00053E060E070E044835583668377838EE074
:1029B00092E09183808325E331E03587248724E307
:1029C00031E03787268720E331E0318B208B21E30C
:1029D00031E0338B228B22E331E0358B248B26E3ED
:1029E00031E0378B268B118E128E138E148EEDE212
:1029F000F3E0138212824483558366837783918345
:102A0000808385EC90E09587848784EC90E09787BD
:102A1000868780EC90E0918B808B81EC90E0938BAB
:102A2000828B82EC90E0958B848B86EC90E0978B88
:102A3000868B118E128E138E148EEBECF3E01382C4
:102A40001282178210868FEB81878FE3828713862D
:102A50001486158616868EE192E09183808310920B
:102A6000CA03E2EEF3E0D183C083128213821482A0
:102A700015820AED13E0EE24E39484E0F82EF801C9
:102A8000F182E082158214821382128281E094E046
:102A90005ED0F80197838683FC0197011192215043
:102AA0003040E1F7E3E5F4E0D183C0831282138282
:102AB00014821582E9E5F4E0D183C0831282138287
:102AC00014821582EFE5F4E0D183C0831282138271
:102AD00014821582E5E6F4E0D183C083128213826A
:102AE00014821582EBE6F4E0D183C0831282138254
:102AF00014821582E1E7F4E0D183C083128213824D
:102B00001482158210924C04DF91CF911F910F9186
:102B1000FF90EF900895AA1BBB1B51E107C0AA1FAD
:102B2000BB1FA617B70710F0A61BB70B881F991F6E
:102B30005A95A9F780959095BC01CD010895EE0FA7
:102B4000FF1F881F8BBF0790F691E02D1994CF933C
:102B5000DF938230910510F482E090E0E0917904F7
:102B6000F0917A0420E030E0C0E0D0E0309711F13D
:102B70004081518148175907C0F04817590761F43F
:102B800082819381209719F09B838A832BC0909335
:102B90007A048093790426C02115310519F0421773
:102BA000530718F49A01BE01DF01EF010280F3819F
:102BB000E02DDCCF2115310509F1281B390B24301C
:102BC000310590F412968D919C91139761157105C2
:102BD00021F0FB019383828304C090937A04809355
:102BE0007904FD01329644C0FD01E20FF31F819389
:102BF0009193225031092D933C933AC02091770450
:102C000030917804232B41F4209102023091030289
:102C100030937804209377042091000230910102D0
:102C20002115310541F42DB73EB740910402509172
:102C30000502241B350BE0917704F0917804E2172C
:102C4000F307A0F42E1B3F0B2817390778F0AC01CF
:102C50004E5F5F4F2417350748F04E0F5F1F5093AC
:102C60007804409377048193919302C0E0E0F0E010
:102C7000CF01DF91CF9108950F931F93CF93DF93EF
:102C8000009709F48CC0FC013297138212820091E4
:102C9000790410917A040115110581F420813181A4
:102CA000820F931F209177043091780428173907F9
:102CB00079F5F0937804E093770471C0D80140E08F
:102CC00050E0AE17BF0750F412962D913C91139728
:102CD000AD012115310509F1D901F3CF9D01DA01CB
:102CE0003383228360817181860F971F8217930738
:102CF00069F4EC0128813981260F371F2E5F3F4F81
:102D0000318320838A819B8193838283452B29F49D
:102D1000F0937A04E093790442C01396FC93EE9307
:102D20001297ED01499159919E01240F351FE21729
:102D3000F30771F480819181840F951F029611969B
:102D40009C938E938281938113969C938E9312977A
:102D5000E0E0F0E0D80112968D919C9113970097D6
:102D600019F0F8018C01F6CF8D919C9198012E5F9E
:102D70003F4F820F931F20917704309178042817DA
:102D8000390769F4309729F410927A041092790483
:102D900002C0138212821093780400937704DF91AB
:102DA000CF911F910F9108956F927F928F929F9272
:102DB000AF92BF92CF92DF92EF92FF920F931F9349
:102DC000CF93DF93EC01009781F4CB01DF91CF919A
:102DD0001F910F91FF90EF90DF90CF90BF90AF9039
:102DE0009F908F907F906F90B2CEFC01E60FF71FFF
:102DF0009C0122503109E217F30708F4A8C0D90159
:102E00000D911C91119706171707A8F005301105B1
:102E100008F49BC0C80104978617970708F495C06B
:102E200002501109061B170B019311936D937C93AC
:102E3000CF0122DF8AC05B01A01AB10A4C01800ECB
:102E4000911EA0917904B0917A0440E050E0E12C09
:102E5000F12C109709F44AC0A815B905D1F56D9069
:102E60007C901197630182E0C80ED11CCA14DB0468
:102E700080F1A3014A195B096A0182E0C80ED11CE6
:102E80001296BC9012971396AC91B5E0CB16D10474
:102E900040F0B282A38351834083D9016D937C9328
:102EA0000AC00E5F1F4FC301800F911FF90191836C
:102EB0008083EB2DFA2FE114F10431F0D701139642
:102EC000FC93EE93129741C0F0937A04E093790457
:102ED0003CC08D919C9111974817590708F4AC019B
:102EE0007D0112960D90BC91A02DB3CF80917704F7
:102EF0009091780488159905E1F446175707C8F4AE
:102F00008091000290910102009741F48DB79EB725
:102F10004091040250910502841B950BE817F907B4
:102F2000B0F4F0937804E0937704F901718360833F
:102F30000CC0CB010CDE7C01009749F0A801BE015A
:102F40001BD0CE0199DEC70104C0CE0102C080E0D3
:102F500090E0DF91CF911F910F91FF90EF90DF9064
:102F6000CF90BF90AF909F908F907F906F9008957B
:102F700081E090E0F89462C3FB01DC0102C00190A3
:102F80000D9241505040D8F70895DC0101C06D9377
:102F900041505040E0F70895FB01DC018D91019014
:102FA00080190110D9F3990B0895FB01DC01019000
:102FB0000D920020E1F70895FB01DC0141505040E3
:102FC00048F001900D920020C9F701C01D924150B8
:102FD0005040E0F70895FB0151915523A9F0BF013E
:102FE000DC014D9145174111E1F759F4CD010190F4
:102FF000002049F04D9140154111C9F3FB014111E9
:10300000EFCF81E090E001970895FC018827992790
:10301000E89421912032E9F3293010F02E30C8F3E2
:103020002B3239F02D3231F4689403C00BD0820F6B
:10303000911D219120532A30C8F31EF4909581955B
:103040009F4F08957AE0979F902D879F802D910D37
:10305000112408950F931F93CF93DF93CDB7DEB75D
:103060002E970FB6F894DEBF0FBECDBF8C01CA01FC
:103070004EE04C831A83098377FF02C060E070E85A
:10308000FB013197FE83ED83A901BC01CE010196BE
:1030900019D04D815E8157FD0AC02F8138854217B6
:1030A00053070CF49A01F801E20FF31F10822E96D9
:1030B0000FB6F894DEBF0FBECDBFDF91CF911F9149
:1030C0000F9108952F923F924F925F926F927F924D
:1030D0008F929F92AF92BF92CF92DF92EF92FF9228
:1030E0000F931F93CF93DF93CDB7DEB72C970FB617
:1030F000F894DEBF0FBECDBF7C016B018A01FC01DD
:1031000017821682838181FFB0C1CE0101964C01E6
:10311000F7019381F60193FD859193FF81916F01F2
:10312000882309F49EC1853239F493FD859193FF7C
:1031300081916F01853221F4B70190E0C7D1E8CFCA
:10314000512C312C20E02032A0F48B3269F030F485
:10315000803259F0833269F420612CC08D3239F00D
:10316000803339F4216026C02260246023C02860A7
:1031700021C027FD27C030ED380F3A3078F426FF04
:1031800006C0FAE05F9E300D1124532E13C08AE072
:10319000389E300D1124332E20620CC08E3221F463
:1031A00026FD5FC1206406C08C3611F4206802C081
:1031B000883641F4F60193FD859193FF81916F016B
:1031C0008111C1CF982F9F7D9554933028F40C5FC7
:1031D0001F4FFFE3F9830DC0833631F0833771F061
:1031E000833509F057C021C0F801808189830E5FC3
:1031F0001F4F44244394512C540114C03801F2E071
:103200006F0E711CF801A080B18026FF03C0652DF0
:1032100070E002C06FEF7FEFC5012C874CD12C010D
:1032200083012C852F77222E16C03801F2E06F0E15
:10323000711CF801A080B18026FF03C0652D70E0ED
:1032400002C06FEF7FEFC5012C872AD12C012C859E
:103250002068222E830123FC19C0832D90E048169C
:103260005906A0F4B70180E290E030D13A94F5CF4E
:10327000F50127FC859127FE81915F01B70190E060
:1032800025D131103A94F1E04F1A510841145104FC
:1032900079F7DEC0843611F0893631F5F80127FF61
:1032A00007C060817181828193810C5F1F4F08C0CC
:1032B00060817181072E000C880B990B0E5F1F4FE8
:1032C0002F76722E97FF09C0909580957095619525
:1032D0007F4F8F4F9F4F2068722E2AE030E0A4016D
:1032E0002DD1A82EA81843C0853729F42F7EB22EE1
:1032F0002AE030E025C0F22FF97FBF2E8F36C1F0D3
:1033000018F4883579F0ADC0803719F0883721F08E
:10331000A8C02F2F2061B22EB4FE0DC08B2D84606B
:10332000B82E09C024FF0AC09F2F9660B92E06C090
:1033300028E030E005C020E130E002C020E132E0CA
:10334000F801B7FE07C060817181828193810C5FB3
:103350001F4F06C06081718180E090E00E5F1F4FBB
:10336000A401ECD0A82EA818FB2DFF777F2E76FEA7
:103370000BC0372D3E7FA51450F474FE0AC072FCBA
:1033800008C0372D3E7E05C0BA2C372D03C0BA2C9D
:1033900001C0B52C34FF0DC0FE01EA0DF11D808186
:1033A000803311F4397E09C032FF06C0B394B39460
:1033B00004C0832F867809F0B39433FD12C030FF28
:1033C00006C05A2CB31418F4530C5B18B32CB31466
:1033D00060F4B70180E290E03C8778D0B3943C85FC
:1033E000F6CFB31410F43B1801C0312C34FF11C0D8
:1033F000B70180E390E03C8769D03C8532FF16C07E
:1034000031FD03C088E790E002C088E590E0B70195
:103410000CC0832F867851F031FF02C08BE201C0CF
:1034200080E237FD8DE2B70190E050D0A51430F472
:10343000B70180E390E04AD05A94F8CFAA94F401FF
:10344000EA0DF11D8081B70190E040D0A110F6CFC8
:10345000332009F45DCEB70180E290E037D03A9492
:10346000F7CFF7018681978102C08FEF9FEF2C96EF
:103470000FB6F894DEBF0FBECDBFDF91CF911F9185
:103480000F91FF90EF90DF90CF90BF90AF909F9003
:103490008F907F906F905F904F903F902F90089506
:1034A000FC010590615070400110D8F7809590950F
:1034B0008E0F9F1F0895FC01615070400190011014
:1034C000D8F7809590958E0F9F1F08950F931F93A7
:1034D000CF93DF93FB01238121FD03C08FEF9FEF8B
:1034E00028C022FF16C046815781248135814217AA
:1034F000530744F4A081B1819D012F5F3F4F318379
:1035000020838C93268137812F5F3F4F378326831B
:1035100010C0EB01092F182F0084F185E02D1995BB
:10352000892BE1F68E819F8101969F838E83812F67
:10353000902FDF91CF911F910F910895FA01AA2743
:10354000283051F1203181F1E8946F936E7F6E5FE6
:103550007F4F8F4F9F4FAF4FB1E03ED0B4E03CD094
:10356000670F781F891F9A1FA11D680F791F8A1F77
:10357000911DA11D6A0F711D811D911DA11D20D0DE
:1035800009F468943F912AE0269F11243019305D98
:103590003193DEF6CF010895462F4770405D419389
:1035A000B3E00FD0C9F7F6CF462F4F70405D4A33D6
:1035B00018F0495D31FD4052419302D0A9F7EACF9E
:1035C000B4E0A6959795879577956795BA95C9F7CD
:1035D00000976105710508959B01AC010A2E0694C0
:1035E0005795479537952795BA95C9F7620F731F79
:1035F000841F951FA01D0895A1E21A2EAA1BBB1BB4
:10360000FD010DC0AA1FBB1FEE1FFF1FA217B307AE
:10361000E407F50720F0A21BB30BE40BF50B661FC4
:10362000771F881F991F1A9469F760957095809588
:1036300090959B01AC01BD01CF01089511E0C3EC51
:10364000D1E000E005C0802FFE0179DA2196011D4E
:0E365000C43CD10780E00807B1F7F894FFCF23
:10365E0000007B04800001000000000000006A07EB
:10366E00D90E340712072607B00700000000A10D7F
:10367E00D90E00000000F601000000002908496E76
:10368E00697420554152542E2E2E004F4B00496E18
:10369E0069742057692D46692E2E2E004F70656E67
:1036AE000057504157504132005353494400417521
:1036BE0074680043682E0052535349005B4F4B5DB4
:0E36CE000D0A005B4552524F525D0D0A00007E
:020000023000CC
:10E000000D9489F10D94B2F10D94B2F10D94B2F129
:10E010000D94B2F10D94B2F10D94B2F10D94B2F1F0
:10E020000D94B2F10D94B2F10D94B2F10D94B2F1E0
:10E030000D94B2F10D94B2F10D94B2F10D94B2F1D0
:10E040000D94B2F10D94B2F10D94B2F10D94B2F1C0
:10E050000D94B2F10D94B2F10D94B2F10D94B2F1B0
:10E060000D94B2F10D94B2F10D94B2F10D94B2F1A0
:10E070000D94B2F10D94B2F10D94B2F10D94B2F190
:10E080000D94B2F10D94B2F10D94B2F10D94B2F180
:10E090000D94B2F10D94B2F10D94B2F10D94B2F170
:10E0A0000D94B2F10D94B2F10D94B2F10D94B2F160
:10E0B0000D94B2F10D94B2F10D94B2F10D94B2F150
:10E0C0000D94B2F10D94B2F10D94B2F10D94B2F140
:10E0D0000D94B2F10D94B2F10D94B2F10D94B2F130
:10E0E0000D94B2F141546D656761323536300041AF
:10E0F000726475696E6F206578706C6F72657220DE
:10E1000073746B3530305632206279204D4C530099
:10E11000426F6F746C6F616465723E004875683F52
:10E1200000436F6D70696C6564206F6E203D200048
:10E130004350552054797065202020203D20005FF9
:10E140005F4156525F415243485F5F3D2000415658
:10E1500052204C696243205665723D20004743437C
:10E160002056657273696F6E203D20004350552024
:10E1700049442020202020203D20004C6F7720663D
:10E18000757365202020203D20004869676820665F
:10E190007573652020203D200045787420667573D6
:10E1A00065202020203D20004C6F636B2066757336
:10E1B000652020203D20004D617220203720323024
:10E1C000313300312E362E3800342E332E350056A2
:10E1D00023202020414444522020206F7020636F70
:10E1E00064652020202020696E73747275637469E1
:10E1F0006F6E2061646472202020496E74657272B3
:10E20000757074006E6F20766563746F7200726A49
:10E210006D702020006A6D70200057686174207056
:10E220006F72743A00506F7274206E6F7420737541
:10E2300070706F72746564004D7573742062652030
:10E2400061206C6574746572002000577269747483
:10E25000696E672045450052656164696E672045B7
:10E26000450045452065727220636E743D00504F35
:10E27000525400303D5A65726F2061646472003FF1
:10E280003D43505520737461747300403D454550C3
:10E29000524F4D207465737400423D426C696E6B41
:10E2A000204C454400453D44756D70204545505215
:10E2B0004F4D00463D44756D7020464C415348001B
:10E2C000483D48656C70004C3D4C69737420492F83
:10E2D0004F20506F72747300513D51756974005234
:10E2E0003D44756D702052414D00563D73686F7707
:10E2F00020696E7465727275707420566563746FF0
:10E30000727300593D506F727420626C696E6B00BD
:10E310002A0011241FBECFEFD1E2DEBFCDBF01E046
:10E320000CBF12E0A0E0B2E0EEE1FDEF03E00BBFB6
:10E3300002C007900D92A030B107D9F712E0A0E01B
:10E34000B2E001C01D92AE30B107E1F70F9460F367
:10E350000D948DFE01E20EBF0FEF0DBF11241FBE05
:10E360000D9460F30D9400F020E030E040ED57E0B4
:10E3700005C0FA013197F1F72F5F3F4F2817390792
:10E38000C0F308959C01260F311DC901A0E0B0E043
:10E390002F5F3F4FABBFFC018791882361F08093D3
:10E3A000C6008091C00086FFFCCF8091C0008064D1
:10E3B0008093C000EACF08958DE08093C6008091DD
:10E3C000C00086FFFCCF8091C00080648093C000B5
:10E3D0008AE08093C6008091C00086FFFCCF8091C8
:10E3E000C00080648093C00008950F94C2F10F9420
:10E3F000DCF10895FC019081992359F09093C600B7
:10E400008091C00086FFFCCF8091C0008064809323
:10E41000C0003196992379F70895282F982F929567
:10E420009F70892F805D8A3308F0895F8093C600D2
:10E430008091C00086FFFCCF8091C00080648093F3
:10E44000C000822F8F70982F905D9A3308F0995FEB
:10E450009093C6008091C00086FFFCCF8091C000E1
:10E4600080648093C00008959C01FB01853691056E
:10E470001CF46330710594F0C90164E670E00F94F8
:10E480002EFE605D7F4F6093C6008091C00086FFC6
:10E49000FCCF8091C00080648093C0002B30310598
:10E4A00014F43297B4F0C90164E670E00F942EFEC4
:10E4B0006AE070E00F942EFE605D7F4F6093C600AF
:10E4C0008091C00086FFFCCF8091C0008064809363
:10E4D000C000C9016AE070E00F942EFEC0968093E0
:10E4E000C6008091C00086FFFCCF8091C000806490
:10E4F0008093C00008951F93182F8EE692EE60E07F
:10E500000F94C2F11093C6008091C00086FFFCCF2B
:10E510008091C00080648093C0000F94DCF11F9153
:10E5200008952F923F924F925F926F927F928F92B7
:10E530009F92AF92BF92CF92DF92EF92FF920F9392
:10E540001F93DF93CF93CDB7DEB762970FB6F894E2
:10E55000DEBF0FBECDBF382E622ECA01DB015C01CB
:10E560006D01772420E2222E2E010894411C511CBB
:10E570008BC081E0A81680E0B80681E0C80680E084
:10E58000D80628F0C601AA27BB270F940DF2BB2797
:10E59000AD2D9C2D8B2D0F940DF28A2D0F940DF225
:10E5A0002092C6008091C00086FFFCCF8091C00001
:10E5B00080648093C0009DE29093C6008091C0006B
:10E5C00086FFFCCF8091C00080648093C0002092C1
:10E5D000C6008091C00086FFFCCF8091C00080649F
:10E5E0008093C00019828601750188249924A1E0D6
:10E5F0003A1651F03A1620F0B2E03B1661F409C029
:10E600000BBFF701779007C0C7010F9477FE782EF4
:10E6100002C0F7017080872D0F940DF22092C60082
:10E620008091C00086FFFCCF8091C0008064809301
:10E63000C000872D8052F401EF70F0708F3520F408
:10E64000E40DF51D708204C0E40DF51D8EE280839B
:10E650000894E11CF11C011D111D0894811C911CE2
:10E6600090E18916910409F0C2CF80E190E0A0E02A
:10E67000B0E0A80EB91ECA1EDB1E198AC2010F9493
:10E68000FAF10F94DCF16A94662009F072CF629679
:10E690000FB6F894DEBF0FBECDBFCF91DF911F91B3
:10E6A0000F91FF90EF90DF90CF90BF90AF909F9031
:10E6B0008F907F906F905F904F903F902F90089534
:10E6C0002F923F924F925F926F927F928F929F9282
:10E6D000AF92BF92CF92DF92EF92FF920F931F9370
:10E6E000DF93CF93CDB7DEB7CD53D1400FB6F894BB
:10E6F000DEBF0FBECDBF01E20EBF0FEF0DBF94B75F
:10E70000F894A89514BE80916000886180936000A1
:10E7100010926000789493FF05C0E0910002F091A0
:10E7200001021995279A2F9A8091C00082608093E8
:10E73000C00080E18093C40088E18093C1000000A4
:10E74000EE24FF24870144E0A42EB12CCC24DD2448
:10E7500024C0C5010197F1F70894E11CF11C011DCB
:10E76000111D21E2E2162EE4F20620E0020720E06D
:10E77000120718F031E0C32ED12CC801B70127ECE5
:10E780003BE140E050E00F9441FE611571058105C9
:10E79000910519F485B1805885B98091C00087FD35
:10E7A00003C0C114D104A9F2A6014F5F5F4FC25E3E
:10E7B000DE4F59834883CE51D140C25EDE4F8881FF
:10E7C0009981CE51D140019711F00D9410FEC05D9A
:10E7D000DE4F19821882C053D14060E0C15DDE4F28
:10E7E0001882CF52D14088249924C35DDE4F19820C
:10E7F0001882CD52D140C05EDE4F188219821A8233
:10E800001B82C052D140CE5CDE4F188219821A8220
:10E810001B82C253D140EE24FF2487010BBFF701B6
:10E8200007911691C45CDE4F19830883CC53D14005
:10E830000D940BFEC25EDE4F28813981CE51D1404E
:10E840002130310509F52091C600C25EDE4F1982E4
:10E850001882CE51D14022C02F5F3F4F4F4F5F4FA4
:10E86000213082E138078AE7480780E0580780F0C6
:10E87000C45CDE4FE881F981CC53D140EF5FFF4F9C
:10E8800019F0EE27FF27099420E030E040E050E047
:10E890008091C00087FFE0CF2091C600C35DDE4FAE
:10E8A00048815981CD52D1404F5F5F4FC35DDE4FEC
:10E8B00059834883CD52D140213209F063C64A3092
:10E8C000510508F05FC60894811C911C53E0851621
:10E8D000910409F059C600E010E018C081E280936D
:10E8E000C6008091C00086FFFCCF8091C00080648C
:10E8F0008093C0002F5F3F4F2931310579F70F9486
:10E90000DCF10F5F1F4F0530110519F020E030E0FA
:10E91000E5CF10920A0210920B0210920C02109294
:10E920000D02109206021092070210920802109235
:10E930000902109202021092030210920402109235
:10E9400005028FEE90EE60E00F94F5F180E191EE1C
:10E9500060E00F94C2F18091C00087FFFCCF9091DE
:10E96000C600903608F09F759032B8F09093C600BC
:10E970008091C00086FFFCCF8091C00080648093AE
:10E98000C000A0E2A093C6008091C00086FFFCCF2B
:10E990008091C00080648093C000983409F4D7C18E
:10E9A0009934B8F4923409F459C1933458F490333B
:10E9B00019F1903308F4E3C59F33A1F1903409F0C5
:10E9C000DEC5BDC0953409F470C1963409F0D7C5D1
:10E9D00098C1923509F42BC2933538F49C3409F46C
:10E9E000F5C1913509F0CBC518C2963509F445C279
:10E9F000993509F0C4C567C483E792EE62E00F94CD
:10EA0000F5F110920602109207021092080210927D
:10EA1000090210920A0210920B0210920C0210923C
:10EA20000D0213C18FE792EE62E00F94F5F18FEEC5
:10EA300090EE60E00F94F5F181E291EE60E00F94CA
:10EA4000C2F187EB91EE60E00F94F5F180E391EE77
:10EA500060E00F94C2F184EE90EE60E00F94F5F167
:10EA60008FE391EE60E00F94C2F186E090E061E008
:10EA700070E00F9434F20F94DCF18DE591EE60E0DC
:10EA80000F94C2F189EC91EE60E00F94F5F18EE401
:10EA900091EE60E00F94C2F183EC91EE60E00F9490
:10EAA000F5F18CE691EE60E00F94C2F18EE10F94E7
:10EAB0000DF288E90F940DF281E00F940DF20F949E
:10EAC000DCF18BE791EE60E00F94C2F119E0E0E039
:10EAD000F0E010935700E4918E2F0F940DF20F94F5
:10EAE000DCF18AE891EE60E00F94C2F1E3E0F0E03F
:10EAF00010935700E4918E2F0F940DF20F94DCF1D8
:10EB000089E991EE60E00F94C2F1E2E0F0E0109349
:10EB10005700E4918E2F0F940DF20F94DCF188EAE8
:10EB200091EE60E00F94C2F1E1E0F0E01093570045
:10EB30001491812F0F940DF20F94DCF107CF8BE825
:10EB400092EE62E00F94F5F18BE492EE60E00F94A8
:10EB5000F5F10F94DCF100E010E019C0C8016F2D51
:10EB60000F947FFEFF2031F489E492EE60E00F9471
:10EB7000C2F10BC0F092C6008091C00086FFFCCFAE
:10EB80008091C00080648093C0000F5F1F4FC80158
:10EB900081519F41A0E0B0E0ABBFFC01F790BAE229
:10EBA000FB1621F0E2E000301E07C1F60F94DCF105
:10EBB0000F94DCF187E592EE60E00F94F5F10F948D
:10EBC000DCF1CC24DD2400E010E01EC0C8010F946D
:10EBD00077FEF82E882331F489E492EE60E00F94FA
:10EBE000C2F10BC08093C6008091C00086FFFCCFAD
:10EBF0008091C00080648093C000FE1419F00894D6
:10EC0000C11CD11C0F5F1F4FC80181519F41A0E063
:10EC1000B0E0ABBFFC01E790FAE2EF1621F022E092
:10EC20000030120799F60F94DCF10F94DCF182E6C4
:10EC300092EE60E00F94C2F1C60161E070E00F94C3
:10EC400034F20F94DCF10F94DCF110920202109276
:10EC50000302109204021092050278CE89E992EE26
:10EC600062E00F94F5F1279A2F9A16C02F9880E052
:10EC700090E0E0EDF7E03197F1F7019684369105E9
:10EC8000C1F72F9A80E090E0E0EDF7E03197F1F7DF
:10EC9000019684369105C1F78091C00087FFE6CFC9
:10ECA0008091C00087FFFCCF64C485EA92EE62E0E9
:10ECB0000F94F5F140910202509103026091040219
:10ECC0007091050281E020E10F9491F2809102029F
:10ECD00090910302A0910402B091050280509F4FD1
:10ECE000AF4FBF4F8093020290930302A0930402A0
:10ECF000B093050280509041A040B04008F426CE69
:10ED0000A4CF83EB92EE62E00F94F5F140910602FE
:10ED100050910702609108027091090280E020E1A1
:10ED20000F9491F28091060290910702A09108023F
:10ED3000B091090280509F4FAF4FBF4F80930602A2
:10ED400090930702A0930802B0930902FFCD80ECD4
:10ED500092EE62E00F94F5F183E792EE60E00F949B
:10ED6000F5F18FE792EE60E00F94F5F18BE892EE0B
:10ED700060E00F94F5F189E992EE60E00F94F5F10F
:10ED800085EA92EE60E00F94F5F183EB92EE60E09D
:10ED90000F94F5F180EC92EE60E00F94F5F187ECC2
:10EDA00092EE60E00F94F5F188ED92EE60E00F9442
:10EDB000F5F18FED92EE60E00F94F5F18AEE92EEB0
:10EDC00060E00F94F5F183E093EEBDCD87EC92EE19
:10EDD00062E00F94F5F181E40F947BF282E40F94EA
:10EDE0007BF283E40F947BF284E40F947BF285E45E
:10EDF0000F947BF286E40F947BF287E40F947BF20E
:10EE000088E40F947BF28AE40F947BF28BE40F94F6
:10EE10007BF28CE40F947BF299CD88ED92EE62E068
:10EE20000F94F5F1772473948824992409C48FED05
:10EE300092EE62E00F94F5F140910A0250910B02BC
:10EE400060910C0270910D0282E020E10F9491F22A
:10EE500080910A0290910B02A0910C02B0910D02D8
:10EE600080509F4FAF4FBF4F80930A0290930B0289
:10EE7000A0930C02B0930D0269CD8AEE92EE62E08F
:10EE80000F94F5F184EE90EE60E00F94F5F18FECC5
:10EE900091EE60E00F94F5F1662477244301CC5D98
:10EEA000DE4F19821882C452D140D401C301B695F5
:10EEB000A79597958795CA5DDE4F88839983AA8326
:10EEC000BB83C652D140CC5DDE4FA881B981C4520C
:10EED000D1401196CC5DDE4FB983A883C452D14096
:10EEE000CD0162E070E00F9434F2B0E2B093C6005E
:10EEF0008091C00086FFFCCF8091C0008064809329
:10EF0000C000EDE2E093C6008091C00086FFFCCF18
:10EF10008091C00080648093C000F0E2F093C6004E
:10EF20008091C00086FFFCCF8091C00080648093F8
:10EF3000C000CA5DDE4FE880F9800A811B81C6529D
:10EF4000D140BB27A12F902F8F2D0F940DF2CA5DBA
:10EF5000DE4F8881C652D1400F940DF2B0E2FB2EF5
:10EF6000F092C6008091C00086FFFCCF8091C00067
:10EF700080648093C0000DE30093C6008091C000C0
:10EF800086FFFCCF8091C00080648093C00010E2B7
:10EF90001093C6008091C00086FFFCCF8091C00016
:10EFA00080648093C0008BBEF3012791C65DDE4F65
:10EFB0002883CA52D140A22EBB24CC24DD2408943D
:10EFC000611C711C811C911C8BBEF3018791282E42
:10EFD0003324442455240894611C711C811C911C09
:10EFE0008BBEF3013791C55DDE4F3883CB52D140E4
:10EFF0000894611C711C811C911C8BBEF30147910C
:10F00000C45DDE4F4883CC52D140ADEFEA2EAFEF66
:10F01000FA2EAFEF0A2FAFEF1A2F6E0C7F1C801E57
:10F02000911E142D032DF22CEE24EA0CFB1C0C1D5A
:10F030001D1D0F940DF220E22093C6008091C000A8
:10F0400086FFFCCF8091C00080648093C000C65DC5
:10F05000DE4F8881CA52D1400F940DF230E23093D6
:10F06000C6008091C00086FFFCCF8091C000806404
:10F070008093C000C45DDE4F8881CC52D1400F9494
:10F080000DF240E24093C6008091C00086FFFCCFA5
:10F090008091C00080648093C000C55DDE4F888190
:10F0A000CB52D1400F940DF250E25093C6008091A4
:10F0B000C00086FFFCCF8091C00080648093C000B8
:10F0C0008FEFE8168FEFF80680E0080780E018075A
:10F0D00031F484E092EE60E00F94C2F1DFC0D80119
:10F0E000C7018070907CA070B0708050904CA040A0
:10F0F000B040D1F52FEF3FE340E050E0E222F322B1
:10F1000004231523CA5DDE4FA880B980CA80DB8046
:10F11000C652D140AE0CBF1CC01ED11EAA0CBB1CD7
:10F12000CC1CDD1C8EE092EE60E00F94C2F1BB2798
:10F13000A12F902F8F2D0F940DF28E2D0F940DF285
:10F1400030E23093C6008091C00086FFFCCF8091F2
:10F15000C00080648093C0004EE34093C60080915D
:10F16000C00086FFFCCF87C08EE09EEFA0E0B0E03D
:10F17000E822F9220A231B239CE0E91694E9F90608
:10F1800090E0090790E0190709F088C0C45DDE4FE0
:10F19000A881CC52D140EA2EFF2400E010E0102FCD
:10F1A0000F2DFE2CEE24C55DDE4FB881CB52D14031
:10F1B000EB0EF11C011D111DD601C501817090706F
:10F1C000A070B070DC0199278827E80EF91E0A1F8D
:10F1D0001B1F20EF30E040E050E0A222B322C42207
:10F1E000D52241E1AA0CBB1CCC1CDD1C4A95D1F7F1
:10F1F000EA0CFB1C0C1D1D1D81E090E0A0E0B0E0BE
:10F20000282239224A225B2235E1220C331C441C7D
:10F21000551C3A95D1F7E20CF31C041D151D57013E
:10F220006801AA0CBB1CCC1CDD1C85E192EE60E0E1
:10F230000F94C2F1C801AA27BB270F940DF2BB2778
:10F24000A12F902F8F2D0F940DF28E2D0F940DF274
:10F2500090E29093C6008091C00086FFFCCF809121
:10F26000C00080648093C000AEE3A093C60080918C
:10F27000C00086FFFCCF8091C00080648093C000F6
:10F28000C601AA27BB270F940DF2BB27AD2D9C2DDD
:10F290008B2D0F940DF28A2D0F940DF20F94DCF14B
:10F2A000CC5DDE4FE881F981C452D140F99709F471
:10F2B0004DCBF4E0EF2EF12C012D112D6E0C7F1CA7
:10F2C000801E911EF2CD83E093EE62E00F94F5F183
:10F2D0008AE192EE60E00F94C2F18091C00087FF56
:10F2E000FCCF1091C6001F751093C6008091C0001E
:10F2F00086FFFCCF8091C00080648093C0000F9493
:10F30000DCF1812F81548A3108F036C1163409F4BA
:10F3100095C0173490F4133409F44EC0143430F40B
:10F320001134F1F0123409F01DC130C0143409F465
:10F3300059C0153409F016C16BC01A3409F4C4C0A1
:10F340001B3438F4173409F48FC0183409F00AC19B
:10F35000A1C01B3409F4D2C01C3409F003C1E8C0B9
:10F360008FEF81B90DC082B1809582B980E090E0C5
:10F37000E0EDF7E03197F1F70196883C9105C1F790
:10F380008091C00087FFEFCF12B8EFC08FEF84B934
:10F390000DC085B1809585B980E090E0E0EDF7E0A3
:10F3A0003197F1F70196883C9105C1F78091C00033
:10F3B00087FFEFCF15B8D9C08FEF87B90DC088B1DF
:10F3C000809588B980E090E0E0EDF7E03197F1F7C3
:10F3D0000196883C9105C1F78091C00087FFEFCF6F
:10F3E00018B8C3C08FEF8AB90DC08BB180958BB9A7
:10F3F00080E090E0E0EDF7E03197F1F70196883C8E
:10F400009105C1F78091C00087FFEFCF1BB8ADC059
:10F410008FEF8DB90DC08EB180958EB980E090E0F0
:10F42000E0EDF7E03197F1F70196883C9105C1F7DF
:10F430008091C00087FFEFCF1EB897C08FEF80BBD1
:10F440000DC081B3809581BB80E090E0E0EDF7E0F6
:10F450003197F1F70196883C9105C1F78091C00082
:10F4600087FFEFCF11BA81C08FEF83BB0DC084B38C
:10F47000809584BB80E090E0E0EDF7E03197F1F714
:10F480000196883C9105C1F78091C00087FFEFCFBE
:10F4900014BA6BC08FEF809301010FC080910201FD
:10F4A00080958093020180E090E0E0EDF7E03197F5
:10F4B000F1F70196883C9105C1F78091C00087FF64
:10F4C000EDCF1092020151C08FEF809304010FC065
:10F4D0008091050180958093050180E090E0E0ED4A
:10F4E000F7E03197F1F70196883C9105C1F78091DB
:10F4F000C00087FFEDCF1092050137C08FEF8093DA
:10F5000007010FC08091080180958093080180E079
:10F5100090E0E0EDF7E03197F1F70196883C910536
:10F52000C1F78091C00087FFEDCF109208011DC088
:10F530008FEF80930A010FC080910B01809580931B
:10F540000B0180E090E0E0EDF7E03197F1F70196F4
:10F55000883C9105C1F78091C00087FFEDCF1092E4
:10F560000B0103C085E292EEEEC98091C00087FFD7
:10F57000FCCF8091C600EAC988E392EEE4C98CE131
:10F5800091EEE1C988249924933011F1943028F444
:10F59000913089F09230B8F408C0953061F195301F
:10F5A000F0F0963009F048C043C02B3109F042C951
:10F5B00091E06BE13FC96227C15DDE4F2883CF52E6
:10F5C000D14092E037C9B22FA0E0622793E032C960
:10F5D000822F90E0A82BB92B622794E02BC92E3004
:10F5E00009F039C3622795E0C05DDE4F19821882A9
:10F5F000C053D1401FC9E1E0F0E0EC0FFD1FC05D3A
:10F60000DE4F08811981C053D140E00FF11F2083E4
:10F610000F5F1F4FC05DDE4F19830883C053D14079
:10F6200062270A171B0709F005C9D80196E002C92D
:10F63000261709F010C303C0973009F0FBC87724E0
:10F640009981933109F412C19431C8F4963009F4C8
:10F65000D8C0973050F4923009F406C1933009F4C1
:10F660006DC0913009F059C253C0913109F477C08F
:10F67000923108F0BBC0903109F04FC2F5C098310B
:10F6800009F487C0993150F4953109F4EFC09531F0
:10F6900008F4C6C1963109F040C2C2C19A3109F4DA
:10F6A0006CC09A3108F491C09B3109F45BC09D3164
:10F6B00009F033C29D81903359F48F81882311F46E
:10F6C0009EE11CC0813011F091E018C098E916C08D
:10F6D000892F807591F0903539F4E0E0F0E089E011
:10F6E0008093570094910AC0983539F4E3E0F0E034
:10F6F00089E080935700949101C090E01A821B82A8
:10F700008D818C831D829E831F8227E030E009C299
:10F710001A8288E08B8381E48C8386E58D8382E581
:10F720008E8389E48F8383E5888780E589878FE5E9
:10F730008A8782E38B872BE030E0F3C18A818139AD
:10F7400041F0823941F0803911F48FE005C080E04A
:10F7500003C082E001C08AE01A828B8344C0772410
:10F76000739482C08D81882311F48EE12CC0813086
:10F7700011F081E028C088E926C01A82E1E0F0E0BB
:10F7800089E08093570084918B831C8224E030E0D1
:10F79000C8C18B81803589F48C81883039F4E2E0EE
:10F7A000F0E089E08093570084910DC0E0E0F0E044
:10F7B00089E080935700849106C0E3E0F0E089E09F
:10F7C0008093570084911A82DFCF8D81836C99E0FA
:10F7D000E1E0F0E0082E90935700E89507B600FCB2
:10F7E000FDCF1A821B8223E030E09BC180EC8A832C
:10F7F000CE5CDE4F188219821A821B82C253D1401E
:10F800008EC18A8190E0A0E0B0E0582F44273327D2
:10F8100022278B8190E0A0E0B0E0DC0199278827C7
:10F82000282B392B4A2B5B2B8D8190E0A0E0B0E098
:10F83000282B392B4A2B5B2B8C8190E0A0E0B0E089
:10F84000BA2FA92F982F8827282B392B4A2B5B2BCF
:10F85000220F331F441F551FC05EDE4F288339839C
:10F860004A835B83C052D1401A8259C13A81C95C34
:10F87000DE4F3883C753D140CA5CDE4F1882C6536F
:10F88000D1408B81C82EDD24CA5CDE4F488159816E
:10F89000C653D140C42AD52A933109F082C0CE5C28
:10F8A000DE4F88819981AA81BB81C253D1408050AB
:10F8B000904CA340B04030F583E0CE5CDE4FE88052
:10F8C000F9800A811B81C253D140F70100935B008C
:10F8D00080935700E89507B600FCFDCFCE5CDE4F65
:10F8E000088119812A813B81C253D14000501F4FAA
:10F8F0002F4F3F4FCE5CDE4F088319832A833B8313
:10F90000C253D140C05EDE4F488159816A817B81FC
:10F91000C052D140DE011B9631E08C9111962C91A2
:10F9200011971296C75CDE4F2883C953D140C85C3B
:10F93000DE4F1882C853D14090E0C85CDE4FE881AA
:10F94000F981C853D1408E2B9F2B0C01FA01609393
:10F950005B0030935700E89511244E5F5F4F6F4F67
:10F960007F4F0EEFE02E0FEFF02ECE0CDF1CC114F8
:10F97000D10499F685E0C05EDE4F088119812A81A5
:10F980003B81C052D140F80120935B008093570027
:10F99000E89507B600FCFDCF81E180935700E8951C
:10F9A00035C0C05EDE4F88819981AA81BB81C0527B
:10F9B000D140B695A795979587957C018601ABE0D8
:10F9C000AA2EB12CAC0EBD1E0BC0D5016D915D01F0
:10F9D000C7010F947FFE0894E11CF11C01501040F8
:10F9E0000115110591F7A60160E070E0440F551F65
:10F9F000661F771FC05EDE4FE880F9800A811B8199
:10FA0000C052D1404E0D5F1D601F711F1A82C05E33
:10FA1000DE4F488359836A837B83C052D1407FC0C5
:10FA2000FA80C55CDE4FF882CB53D140C65CDE4F16
:10FA30001882CA53D1408B81C82EDD24C65CDE4FAC
:10FA400008811981CA53D140C02AD12A1A828981DA
:10FA5000BE016D5F7F4F843121F59601C05EDE4FA0
:10FA6000E880F9800A811B81C052D1400BBFF701A9
:10FA700087919691DB018C9311969C936E5F7F4FDB
:10FA8000D801C7010296A11DB11DC05EDE4F88835B
:10FA90009983AA83BB83C052D14022503040F1F6F3
:10FAA00036C0C05EDE4F288139814A815B81C052F9
:10FAB000D1400894C108D108760100E010E0089414
:10FAC000C11CD11C0894E11CF11C011D111DE20E8A
:10FAD000F31E041F151F21BDBB27A52F942F832FB5
:10FAE00082BD2F5F3F4F4F4F5F4FF89A80B5DB01CC
:10FAF0008D93BD012E153F054007510761F7C05E8C
:10FB0000DE4F288339834A835B83C052D1409601FC
:10FB10002D5F3F4FFB01108204C080EC8A8322E0FE
:10FB200030E08BE18093C6008091C00086FFFCCF5F
:10FB30008091C00080648093C000C15DDE4FF88179
:10FB4000CF52D140F093C6008091C00086FFFCCF19
:10FB50008091C00080648093C000432F3093C60022
:10FB60008091C00086FFFCCF8091C00080648093AC
:10FB7000C000922F2093C6008091C00086FFFCCF6A
:10FB80008091C00080648093C0008EE08093C600A6
:10FB90008091C00086FFFCCF8091C000806480937C
:10FBA000C00065E1C15DDE4FE880CF52D1406E25D7
:10FBB00069276427FE01319610C090819093C6009A
:10FBC0008091C00086FFFCCF31968091C000806498
:10FBD0008093C0006927215030402115310569F715
:10FBE0006093C6008091C00086FFFCCF8091C0006A
:10FBF00080648093C00085B1805885B9772081F4F6
:10FC0000C15DDE4F0881CF52D1400F5FC15DDE4F35
:10FC10000883CF52D14090E0A0E0B0E00D941AF4F8
:10FC200027982F9880E090E020ED37E0F901319798
:10FC3000F1F7019684369105C9F700008091C00064
:10FC40008D7F8093C00081E180935700E895EE2777
:10FC5000FF270994FFCF90E00D941AF497FB092E2B
:10FC600007260AD077FD04D02ED006D000201AF443
:10FC7000709561957F4F0895F6F7909581959F4F08
:10FC80000895A1E21A2EAA1BBB1BFD010DC0AA1FDD
:10FC9000BB1FEE1FFF1FA217B307E407F50720F0F5
:10FCA000A21BB30BE40BF50B661F771F881F991F70
:10FCB0001A9469F760957095809590959B01AC01B9
:10FCC000BD01CF010895AA1BBB1B51E107C0AA1FAC
:10FCD000BB1FA617B70710F0A61BB70B881F991FED
:10FCE0005A95A9F780959095BC01CD010895F99991
:10FCF000FECF92BD81BDF89A992780B50895262F31
:10FD0000F999FECF1FBA92BD81BD20BD0FB6F89400
:0EFD1000FA9AF99A0FBE01960895F894FFCF63
:040000033000E000E9
:00000001FF